{
    "contractName": "Test",
    "abi": [
        {
            "inputs": [
                {
                    "internalType": "uint256",
                    "name": "testNum",
                    "type": "uint256"
                }
            ],
            "name": "test",
            "outputs": [
                {
                    "internalType": "uint256",
                    "name": "",
                    "type": "uint256"
                }
            ],
            "stateMutability": "pure",
            "type": "function"
        }
    ],
    "bytecode": "6080604052348015600f57600080fd5b50609b8061001e6000396000f3fe6080604052348015600f57600080fd5b506004361060285760003560e01c806329e99f0714602d575b600080fd5b603b6038366004604d565b90565b60405190815260200160405180910390f35b600060208284031215605e57600080fd5b503591905056fea2646970667358221220da44cbb83196cbcffead99461afada2691c02ca3d5d229cc56e6cc3db8b4c37864736f6c63430008110033",
    "sourcePath": "/home/ahmad/Projects/Web3.0/faucet/contracts/Test.sol",
    "compiler": {
        "name": "solc",
        "version": "0.8.17+commit.8df45f5f"
    },
    "functionHashes": {
        "test(uint256)": "29e99f07"
    },
    "gasEstimates": {
        "creation": {
            "codeDepositCost": "31000",
            "executionCost": "81",
            "totalCost": "31081"
        },
        "external": {
            "test(uint256)": "235"
        }
    }
}