{
  "contractName": "Faucet",
  "abi": [
    {
      "inputs": [],
      "name": "numOfFunders",
      "outputs": [
        {
          "internalType": "uint256",
          "name": "",
          "type": "uint256"
        }
      ],
      "stateMutability": "view",
      "type": "function",
      "constant": true
    },
    {
      "inputs": [],
      "name": "owner",
      "outputs": [
        {
          "internalType": "address",
          "name": "",
          "type": "address"
        }
      ],
      "stateMutability": "view",
      "type": "function",
      "constant": true
    },
    {
      "inputs": [],
      "name": "test3",
      "outputs": [
        {
          "internalType": "uint256",
          "name": "",
          "type": "uint256"
        }
      ],
      "stateMutability": "pure",
      "type": "function",
      "constant": true
    },
    {
      "inputs": [],
      "name": "testNum",
      "outputs": [
        {
          "internalType": "uint256",
          "name": "",
          "type": "uint256"
        }
      ],
      "stateMutability": "view",
      "type": "function",
      "constant": true
    },
    {
      "stateMutability": "payable",
      "type": "receive",
      "payable": true
    },
    {
      "inputs": [],
      "name": "emitLog",
      "outputs": [
        {
          "internalType": "bytes32",
          "name": "",
          "type": "bytes32"
        }
      ],
      "stateMutability": "pure",
      "type": "function",
      "constant": true
    },
    {
      "inputs": [
        {
          "internalType": "address",
          "name": "newOwner",
          "type": "address"
        }
      ],
      "name": "transferOwnership",
      "outputs": [],
      "stateMutability": "nonpayable",
      "type": "function"
    },
    {
      "inputs": [],
      "name": "addFunds",
      "outputs": [],
      "stateMutability": "payable",
      "type": "function",
      "payable": true
    },
    {
      "inputs": [],
      "name": "test1",
      "outputs": [],
      "stateMutability": "nonpayable",
      "type": "function"
    },
    {
      "inputs": [],
      "name": "test2",
      "outputs": [],
      "stateMutability": "nonpayable",
      "type": "function"
    },
    {
      "inputs": [],
      "name": "justTesting",
      "outputs": [
        {
          "internalType": "uint256",
          "name": "",
          "type": "uint256"
        }
      ],
      "stateMutability": "pure",
      "type": "function",
      "constant": true
    },
    {
      "inputs": [
        {
          "internalType": "uint256",
          "name": "withdrawAmount",
          "type": "uint256"
        }
      ],
      "name": "withdraw",
      "outputs": [],
      "stateMutability": "nonpayable",
      "type": "function"
    },
    {
      "inputs": [],
      "name": "getAllFunders",
      "outputs": [
        {
          "internalType": "address[]",
          "name": "",
          "type": "address[]"
        }
      ],
      "stateMutability": "view",
      "type": "function",
      "constant": true
    },
    {
      "inputs": [
        {
          "internalType": "uint8",
          "name": "index",
          "type": "uint8"
        }
      ],
      "name": "getFunderAtIndex",
      "outputs": [
        {
          "internalType": "address",
          "name": "",
          "type": "address"
        }
      ],
      "stateMutability": "view",
      "type": "function",
      "constant": true
    }
  ],
  "bytecode": "0x608060405234801561001057600080fd5b50336000806101000a81548173ffffffffffffffffffffffffffffffffffffffff021916908373ffffffffffffffffffffffffffffffffffffffff1602179055506103e8600181905550610cef806100696000396000f3fe6080604052600436106100c65760003560e01c80638da5cb5b1161007f578063ae28f1ed11610059578063ae28f1ed1461021c578063af7f2c9b14610247578063f2fde38b14610272578063f42c13bf1461029b576100cd565b80638da5cb5b146101bc578063a23f8a3d146101e7578063a26759cb14610212576100cd565b80630a8e8e01146100d25780630a93cf33146100fd5780632e1a7d4d1461013a57806366e41cb7146101635780636b59084d1461017a5780636fbbb55d14610191576100cd565b366100cd57005b600080fd5b3480156100de57600080fd5b506100e76102c6565b6040516100f49190610aa6565b60405180910390f35b34801561010957600080fd5b50610124600480360381019061011f91906108ed565b6102cf565b6040516101319190610a0e565b60405180910390f35b34801561014657600080fd5b50610161600480360381019061015c91906108c4565b61030f565b005b34801561016f57600080fd5b506101786103a6565b005b34801561018657600080fd5b5061018f610436565b005b34801561019d57600080fd5b506101a66104c6565b6040516101b39190610a29565b60405180910390f35b3480156101c857600080fd5b506101d161060c565b6040516101de9190610a0e565b60405180910390f35b3480156101f357600080fd5b506101fc610630565b6040516102099190610aa6565b60405180910390f35b61021a610639565b005b34801561022857600080fd5b50610231610757565b60405161023e9190610aa6565b60405180910390f35b34801561025357600080fd5b5061025c61075d565b6040516102699190610aa6565b60405180910390f35b34801561027e57600080fd5b506102996004803603810190610294919061089b565b610763565b005b3480156102a757600080fd5b506102b0610834565b6040516102bd9190610a4b565b60405180910390f35b60006064905090565b6000600460008360ff16815260200190815260200160002060009054906101000a900473ffffffffffffffffffffffffffffffffffffffff169050919050565b80670de0b6b3a764000081111561035b576040517f08c379a000000000000000000000000000000000000000000000000000000000815260040161035290610a86565b60405180910390fd5b3373ffffffffffffffffffffffffffffffffffffffff166108fc839081150290604051600060405180830381858888f193505050501580156103a1573d6000803e3d6000fd5b505050565b60008054906101000a900473ffffffffffffffffffffffffffffffffffffffff1673ffffffffffffffffffffffffffffffffffffffff163373ffffffffffffffffffffffffffffffffffffffff1614610434576040517f08c379a000000000000000000000000000000000000000000000000000000000815260040161042b90610a66565b60405180910390fd5b565b60008054906101000a900473ffffffffffffffffffffffffffffffffffffffff1673ffffffffffffffffffffffffffffffffffffffff163373ffffffffffffffffffffffffffffffffffffffff16146104c4576040517f08c379a00000000000000000000000000000000000000000000000000000000081526004016104bb90610a66565b60405180910390fd5b565b6060600060025467ffffffffffffffff81111561050c577f4e487b7100000000000000000000000000000000000000000000000000000000600052604160045260246000fd5b60405190808252806020026020018201604052801561053a5781602001602082028036833780820191505090505b50905060005b600254811015610604576004600082815260200190815260200160002060009054906101000a900473ffffffffffffffffffffffffffffffffffffffff168282815181106105b7577f4e487b7100000000000000000000000000000000000000000000000000000000600052603260045260246000fd5b602002602001019073ffffffffffffffffffffffffffffffffffffffff16908173ffffffffffffffffffffffffffffffffffffffff168152505080806105fc90610b5e565b915050610540565b508091505090565b60008054906101000a900473ffffffffffffffffffffffffffffffffffffffff1681565b60006004905090565b6000339050600360008273ffffffffffffffffffffffffffffffffffffffff1673ffffffffffffffffffffffffffffffffffffffff16815260200190815260200160002060009054906101000a900460ff1661075457600260008154809291906106a290610b5e565b91905055506001600360008373ffffffffffffffffffffffffffffffffffffffff1673ffffffffffffffffffffffffffffffffffffffff16815260200190815260200160002060006101000a81548160ff0219169083151502179055508060046000600254815260200190815260200160002060006101000a81548173ffffffffffffffffffffffffffffffffffffffff021916908373ffffffffffffffffffffffffffffffffffffffff1602179055505b50565b60015481565b60025481565b60008054906101000a900473ffffffffffffffffffffffffffffffffffffffff1673ffffffffffffffffffffffffffffffffffffffff163373ffffffffffffffffffffffffffffffffffffffff16146107f1576040517f08c379a00000000000000000000000000000000000000000000000000000000081526004016107e890610a66565b60405180910390fd5b806000806101000a81548173ffffffffffffffffffffffffffffffffffffffff021916908373ffffffffffffffffffffffffffffffffffffffff16021790555050565b60007f48656c6c6f20576f726c64000000000000000000000000000000000000000000905090565b60008135905061086b81610c74565b92915050565b60008135905061088081610c8b565b92915050565b60008135905061089581610ca2565b92915050565b6000602082840312156108ad57600080fd5b60006108bb8482850161085c565b91505092915050565b6000602082840312156108d657600080fd5b60006108e484828501610871565b91505092915050565b6000602082840312156108ff57600080fd5b600061090d84828501610886565b91505092915050565b6000610922838361092e565b60208301905092915050565b61093781610b0b565b82525050565b61094681610b0b565b82525050565b600061095782610ad1565b6109618185610ae9565b935061096c83610ac1565b8060005b8381101561099d5781516109848882610916565b975061098f83610adc565b925050600181019050610970565b5085935050505092915050565b6109b381610b1d565b82525050565b60006109c6602183610afa565b91506109d182610bd6565b604082019050919050565b60006109e9602383610afa565b91506109f482610c25565b604082019050919050565b610a0881610b47565b82525050565b6000602082019050610a23600083018461093d565b92915050565b60006020820190508181036000830152610a43818461094c565b905092915050565b6000602082019050610a6060008301846109aa565b92915050565b60006020820190508181036000830152610a7f816109b9565b9050919050565b60006020820190508181036000830152610a9f816109dc565b9050919050565b6000602082019050610abb60008301846109ff565b92915050565b6000819050602082019050919050565b600081519050919050565b6000602082019050919050565b600082825260208201905092915050565b600082825260208201905092915050565b6000610b1682610b27565b9050919050565b6000819050919050565b600073ffffffffffffffffffffffffffffffffffffffff82169050919050565b6000819050919050565b600060ff82169050919050565b6000610b6982610b47565b91507fffffffffffffffffffffffffffffffffffffffffffffffffffffffffffffffff821415610b9c57610b9b610ba7565b5b600182019050919050565b7f4e487b7100000000000000000000000000000000000000000000000000000000600052601160045260246000fd5b7f4f6e6c79206f776e65722063616e2063616c6c20746869732066756e6374696f60008201527f6e00000000000000000000000000000000000000000000000000000000000000602082015250565b7f43616e6e6f74207769746864726177206d6f7265207468616e20302e3120657460008201527f6865720000000000000000000000000000000000000000000000000000000000602082015250565b610c7d81610b0b565b8114610c8857600080fd5b50565b610c9481610b47565b8114610c9f57600080fd5b50565b610cab81610b51565b8114610cb657600080fd5b5056fea2646970667358221220f71cba32d9bab5bf00311892a7c5be3a8b8ab361cdab057d6d4acd7e0d17007564736f6c63430008040033",
  "immutableReferences": {},
  "source": "// SPDX-License-Identifier: MIT\npragma solidity >=0.4.22 <0.9.0;\nimport \"./Owned.sol\";\nimport \"./Logger.sol\";\nimport \"./IFaucet.sol\";\n\ncontract Faucet is Owned, Logger, IFaucet {\n    uint256 public numOfFunders;\n    mapping(address => bool) private funders;\n    mapping(uint256 => address) private lutFunders; //lut->lookupTable\n\n    modifier limitWithdraw(uint256 withdrawAmount) {\n        require(\n            withdrawAmount <= 1000000000000000000,\n            \"Cannot withdraw more than 0.1 ether\"\n        );\n        _;\n    }\n\n    //private-> can be accesible only within the smart contract\n\n    //internal-> can be accesible within smart contact and also derived smart contract\n\n    receive() external payable {}\n\n    function emitLog() public pure override returns (bytes32) {\n        return \"Hello World\";\n    }\n\n    function transferOwnership(address newOwner) external onlyOwner {\n        owner = newOwner;\n    }\n\n    function addFunds() external payable override {\n        address funder = msg.sender;\n        if (!funders[funder]) {\n            numOfFunders++;\n            funders[funder] = true;\n            lutFunders[numOfFunders] = funder;\n        }\n    }\n\n    function test1() external onlyOwner {\n        //some managing stuff that only admin has access\n    }\n\n    function test2() external onlyOwner {\n        //some managing stuff that only admin has access\n    }\n\n    function justTesting() external pure returns (uint256) {\n        return 2 + 2;\n    }\n\n    function withdraw(uint256 withdrawAmount)\n        external\n        override\n        limitWithdraw(withdrawAmount)\n    {\n        payable(msg.sender).transfer(withdrawAmount);\n    }\n\n    function getAllFunders() external view returns (address[] memory) {\n        address[] memory _funders = new address[](numOfFunders);\n        for (uint256 index = 0; index < numOfFunders; index++) {\n            _funders[index] = lutFunders[index];\n        }\n        return _funders;\n    }\n\n    function getFunderAtIndex(uint8 index) external view returns (address) {\n        return lutFunders[index];\n    }\n\n    //pure,view-read-only-call,no gas fee\n    //view-it indicates that the function will not alter the storage state in any way\n    //pure -even more strict,indication that it wont event read the storage state\n    //Transactions (can generate state changes) and require gas free\n    //read-only call,no gas free\n    //to talk to the node on network you can make JSON-RPC http calls\n    //const instance= await Faucet.deployed();\n    // instance.addFunds({value:\"2000000000000000000\",from:accounts[0]})\n    // instance.withdraw(\"5000000000000000000\",{from:\"0x1DDEFfc049989Ef088D64fAc6bFBCC6b33D6e417\"})\n}\n",
  "sourcePath": "/home/ahmad/Projects/Web3.0/faucet/contracts/FaucetContract.sol",
  "compiler": {
    "name": "solc",
    "version": "0.8.4+commit.c7e474f2.Emscripten.clang"
  },
  "schemaVersion": "3.4.9",
  "updatedAt": "2022-10-10T09:02:03.058Z",
  "networkType": "ethereum",
  "devdoc": {
    "kind": "dev",
    "methods": {},
    "version": 1
  },
  "userdoc": {
    "kind": "user",
    "methods": {},
    "version": 1
  }
}