{
  "contractName": "Test",
  "abi": [
    {
      "inputs": [
        {
          "internalType": "uint256",
          "name": "testNum",
          "type": "uint256"
        }
      ],
      "name": "test",
      "outputs": [
        {
          "internalType": "uint256",
          "name": "data",
          "type": "uint256"
        }
      ],
      "stateMutability": "pure",
      "type": "function"
    },
    {
      "inputs": [],
      "name": "test2",
      "outputs": [
        {
          "internalType": "bytes32",
          "name": "data",
          "type": "bytes32"
        }
      ],
      "stateMutability": "pure",
      "type": "function"
    }
  ],
  "bytecode": "0x608060405234801561001057600080fd5b506101d7806100206000396000f3fe608060405234801561001057600080fd5b50600436106100365760003560e01c806329e99f071461003b57806366e41cb71461006b575b600080fd5b610055600480360381019061005091906100f9565b610089565b604051610062919061015b565b60405180910390f35b6100736100c9565b6040516100809190610140565b60405180910390f35b6000609060405260006040518060600160405280600160ff168152602001600260ff168152602001600360ff168152509050602060900151915050919050565b60006040516468656c6c6f6000820152600081015191505090565b6000813590506100f38161018a565b92915050565b60006020828403121561010b57600080fd5b6000610119848285016100e4565b91505092915050565b61012b81610176565b82525050565b61013a81610180565b82525050565b60006020820190506101556000830184610122565b92915050565b60006020820190506101706000830184610131565b92915050565b6000819050919050565b6000819050919050565b61019381610180565b811461019e57600080fd5b5056fea2646970667358221220cfe95302798ede3af3b42168e3859ee79cf8f52c0d9ece71180f1f8608df24aa64736f6c63430008040033",
  "immutableReferences": {},
  "source": "// SPDX-License-Identifier: GPL-3.0\n\npragma solidity >=0.7.0 <0.9.0;\n\ncontract Test {\n    function test(uint256 testNum) external pure returns (uint256 data) {\n        assembly {\n            mstore(0x40, 0x90)\n        }\n        uint8[3] memory items = [1, 2, 3];\n\n        assembly {\n            data := mload(add(0x90, 0x20))\n        }\n    }\n\n    function test2() external pure returns (bytes32 data) {\n        assembly {\n            let fmp := mload(0x40)\n            //hello\n            mstore(add(fmp, 0x00), 0x68656C6C6F)\n            data := mload(add(fmp, 0x00))\n        }\n    }\n}\n",
  "sourcePath": "/home/ahmad/Projects/Web3.0/faucet/contracts/Test.sol",
  "compiler": {
    "name": "solc",
    "version": "0.8.4+commit.c7e474f2.Emscripten.clang"
  },
  "schemaVersion": "3.4.9",
  "updatedAt": "2022-10-10T06:59:32.329Z",
  "devdoc": {
    "kind": "dev",
    "methods": {},
    "version": 1
  },
  "userdoc": {
    "kind": "user",
    "methods": {},
    "version": 1
  }
}